:0200000460009A
:100000004643464200000156000000000101020084
:1000100000000000000000000000000000000000E0
:1000200000000000000000000000000000000000D0
:1000300000000000000000000000000000000000C0
:1000400000000000010403000000000000000000A8
:100050000000200000000000000000000000000080
:100060000000000000000000000000000000000090
:100070000000000000000000000000000000000080
:10008000EB04180A063204260000000000000000FD
:10009000050404240000000000000000000000002F
:1000A0000000000000000000000000000000000050
:1000B0000604000000000000000000000000000036
:1000C0000000000000000000000000000000000030
:1000D00020041808000000000000000000000000DC
:1000E0000000000000000000000000000000000010
:1000F0000000000000000000000000000000000000
:1001000000000000000000000000000000000000EF
:100110000204180804200000000000000000000095
:1001200000000000000000000000000000000000CF
:10013000600400000000000000000000000000005B
:1001400000000000000000000000000000000000AF
:10015000000000000000000000000000000000009F
:10016000000000000000000000000000000000008F
:10017000000000000000000000000000000000007F
:10018000000000000000000000000000000000006F
:10019000000000000000000000000000000000005F
:1001A000000000000000000000000000000000004F
:1001B000000000000000000000000000000000003F
:1001C000000100000010000001000000000000001D
:1001D000000000000000000000000000000000001F
:1001E000000000000000000000000000000000000F
:1001F00000000000000000000000000000000000FF
:10020000D4D4D4D4D4D4D4D4D4D4D4D4D4D4D4D4AE
:10100000D10020400020006000000000000000002F
:1010100020100060001000600000000000000000D0
:1010200000000060D4F7010000000000EFBEADDE5C
:10103000124880F3088812481249016000F036F81F
:10104000114812490022814201D004C0FBE7104838
:101050001049114A814202D008CA08C0FAE70F4875
:101060004FF47001026842EA01020260BFF34F8F41
:10107000BFF36F8F00F014F800DE00000040002086
:1010800008ED00E00040002000500020988500207E
:10109000B84200204C440020D4F7016088ED00E005
:1010A00041F6754CC0F2000C6047D4D4204840F2A1
:1010B0009C41884219D040F24C418842CCBF1D4A25
:1010C0001D4A1E4B5360136823F0800313601C48B5
:1010D0001C49C1BF1C480A0C8264C1F30F01416462
:1010E000016C41F00401016402E0184815490160F7
:1010F0001748184A824205D01749814202D008CACF
:1011000008C0FAE71548164A824205D015498142BF
:1011100002D008CA08C0FAE71348144A824205D030
:101120001349814202D008CA08C0FAE7704700009C
:10113000240400000080034000C00B4020C528D9D3
:1011400000C00A40AAAAFAFF00400E4060004F44C7
:1011500000000000B822006050860100004000201E
:1011600000200060B84200200000202008A9016093
:10117000CC4E2020D4D4D4D4D4D4D4D4D4D4D4D425
:10118000D4D4D4D4D4D4D4D4D4D4D4D4D4D4D4D41F
:10119000D4D4D4D4D4D4D4D4D4D4D4D4D4D4D4D40F
:1011A000D4D4D4D4D4D4D4D4D4D4D4D4D4D4D4D4FF
:1011B000D4D4D4D4D4D4D4D4D4D4D4D4D4D4D4D4EF
:1020000000400020311000602BDA00002F86010014
:102010002BDA00002BDA00002BDA000000000000B1
:102020000000000000000000000000002BDA0000AB
:102030002BDA0000000000002BDA0000F31D000086
:102040002BDA00002BDA00002BDA00002BDA00007C
:102050002BDA00002BDA00002BDA00002BDA00006C
:102060002BDA00002BDA00002BDA00002BDA00005C
:102070002BDA00002BDA00002BDA00002BDA00004C
:102080002BDA00000000000000000000000000004B
:102090002BDA00002BDA00002BDA00002BDA00002C
:1020A0002BDA00002BDA00002BDA00002BDA00001C
:1020B0002BDA00002BDA00002BDA00002BDA00000C
:1020C0002BDA00002BDA00002BDA00002BDA0000FC
:1020D0002BDA00002BDA00002BDA00002BDA0000EC
:1020E0002BDA00002BDA00002BDA00002BDA0000DC
:1020F0002BDA00002BDA00002BDA00002BDA0000CC
:102100002BDA00002BDA00002BDA00002BDA0000BB
:10211000000000002BDA0000000000002BDA0000B5
:102120002BDA00002BDA00002BDA00002BDA00009B
:102130002BDA00002BDA0000000000002BDA000090
:102140002BDA00002BDA00002BDA00002BDA00007B
:102150002BDA00002BDA0000000000000000000075
:102160002BDA00002BDA00002BDA00002BDA00005B
:102170002BDA00002BDA00002BDA00002BDA00004B
:102180002BDA00002BDA00002BDA00002BDA00003B
:102190002BDA00002BDA00002BDA00002BDA00002B
:1021A0002BDA00002BDA00002BDA00002BDA00001B
:1021B0002BDA00002BDA00002BDA00002BDA00000B
:1021C0002BDA00002BDA00002BDA00000000000000
:1021D0002BDA00002BDA00002BDA00002BDA0000EB
:1021E0002BDA00002BDA00002BDA00002BDA0000DB
:1021F0002BDA00002BDA00002BDA00002BDA0000CB
:102200002BDA00002D1A00002BDA00002BDA000078
:102210002BDA00002BDA00002BDA00002BDA0000AA
:102220002BDA00002BDA00002BDA00002BDA00009A
:102230002BDA00002BDA00002BDA0000000000008F
:10224000000000002BDA00002BDA00002BDA00007F
:102250002BDA00002BDA00002BDA00002BDA00006A
:102260002BDA00002BDA00002BDA00002BDA00005A
:102270002BDA00002BDA00002BDA00002BDA00004A
:102280002BDA00002BDA00002BDA00002BDA00003A
:102290002BDA00002BDA00002BDA00002BDA00002A
:1022A0002BDA00002BDA00002BDA0000000000001F
:0822B0002BDA00002BDA00001C
:1022B80080B56F468EB00290039103A8019004F098
:1022C8003CFE00F5C6700A904FF4704127F80A1CCE
:1022D8000C9015F0A8F9019804F02FFE00F5C770CE
:1022E80008900F2127F8121C0D9015F09CF9019900
:1022F80004A804F069FC0299039808600498059AF8
:10230800069BDDF81CC0C1F810C0CB608A6048602D
:102318000EB080BD80B56F468EB00290039103A8C1
:10232800019004F034FE00F5C6700A904FF4704135
:1023380027F80A1C0C9015F076F9019804F027FE8E
:1023480000F5C77008900F2127F8121C0D9015F0A2
:102358006AF9019904A804F0B2FC0299039808608C
:102368000498059A069BDDF81CC0C1F810C0CB6024
:102378008A6048600EB080BD80B56F468EB002900E
:10238800039103A8019004F0EAFD00F5C6700A90D5
:102398004FF4704127F80A1C0C9015F044F9019885
:1023A80004F0DDFD00F5C77008900F2127F8121C16
:1023B8000D9015F038F9019904A804F02EFC029943
:1023C800039808600498059A069BDDF81CC0C1F8BC
:1023D80010C0CB608A6048600EB080BD80B56F4683
:1023E8008EB00290039103A8019004F0CAFD00F595
:1023F800C6700A904FF4704127F80A1C0C9015F02B
:1024080012F9019804F0BDFD00F5C77008900F217E
:1024180027F8121C0D9015F006F9019904A804F08C
:1024280025FC0299039808600498059A069BDDF834
:102438001CC0C1F810C0CB608A6048600EB080BD77
:1024480086B0009001910490059102900391029842
:10245800039906B0704780B56F4682B0009001912D
:1024680000F01EF902B080BDD0B502AFA0B0039352
:1024780005920291014602980A911C921D9302F05E
:102488000EFF024609920846039907901E921F9074
:1024980012A8049001F0FBFF049940F27C00C2F2FC
:1024A80020006A46106040F20002C2F220020BA827
:1024B80008901F2302F066FF059919A8069004F0FA
:1024C80038FE069840F2AC01C2F2200140F20C132B
:1024D800C2F22003202202F03DFFDDF81CC0089A5A
:1024E800DDF824E0034608460A99C1F81CE0C1F863
:1024F80020C04B6288620846B2E80850A0E808503D
:1025080092E8185080E818500020888520B0D0BD87
:1025180080B56F4688B001930092049005910692A9
:1025280007931C3010F0B0FB034600980A46019947
:102538000293039202AA01F081FF08B080BDD0B5D2
:1025480002AFAAB002920C46039000200490ADF8A6
:10255800140008A800908021019117F0BDFF009990
:10256800019A0398049BDDF808E028932368D4F8BF
:1025780004C0A4684461C0F810C0C360DEF800302D
:10258800DEF804C0DEF808E0C0F820E0C0F81CC09F
:102598008361059BDDF818C0DDF81CE0C0F808E091
:1025A800C0F804C00360243018F097F90399049820
:1025B800289B299AC1F8A430C1F8A820C1F8AC001A
:1025C800C1F8B0002AB0D0BD8EB0009005900120AF
:1025D80006900790FFE7009841680391089003A9C7
:1025E800099100680399401AB0FA80F040098DF803
:1025F8000B00FFE79DF80B00C00720B9FFE7009824
:102608000068049002E0002001900DE00099081D88
:102618000A900B9008680C9001300860FFE704A846
:102628000D9004980190FFE701980EB0704780B5AF
:102638006F4682B0019000F002F802B080BD80B50C
:102648006F4682B001900090002028B9FFE70098FB
:1026580014F095FE02B080BD40F27810C2F220005E
:1026680017F048FD82B0009078200190019802B0E0
:10267800704780B56F4682B000900191684604F0BB
:10268800CFFB02B080BD81B001B0704782B000902E
:10269800019102B0704782B00090019102B070477A
:1026A80082B00090019102B0704782B0019040F072
:1026B800020002B0704782B0019040F0040002B0FE
:1026C800704782B0019020F0040002B0704700000B
:1026D80080B56F4686B0009104900591007801900E
:1026E8000199DFE801F0050D151D252D353DFEDEAC
:1026F80040F28810C2F2200002900A20039037E0CE
:1027080040F29210C2F2200002900A2003902FE0BB
:1027180040F29C10C2F2200002900E20039027E0A5
:1027280040F2AC10C2F220000290102003901FE08B
:1027380040F2DC10C2F2200002901620039017E04D
:1027480040F2F210C2F2200002900F2003900FE036
:1027580040F20120C2F2200002900B20039007E013
:1027680040F20C20C2F2200002900C200390FFE7F8
:1027780000980299039A17F0F8F806B080BD80B562
:102788006F468CB00193029007F8221C07F8212CA1
:1027980017F8220CC007F8B9FFE7DDF804C017F8EE
:1027A800212C07F8022CDCF80000DCF80410DCF817
:1027B8000830DCF80CC0CDF828C0099308910790C0
:1027C80004A807A903F0E4FC02990498059A069B5B
:1027D8008B604A60086008E0029917F8210C07F836
:1027E800010C087004200872FFE70CB080BD80B5AA
:1027F8006F468CB00193029007F8221C07F8212C31
:1028080017F8220CC007F8B9FFE7DDF804C017F87D
:10281800212C07F8022CDCF80000DCF80410DCF8A6
:102828000830DCF80CC0CDF828C00993089107904F
:1028380004A807A903F0CAFC02990498059A069B04
:102848008B604A60086008E0029917F8210C07F8C5
:10285800010C087004200872FFE70CB080BD81B03D
:10286800009001780120884301B0704780B56F4619
:102878008AB00293039204910590B8680690089272
:102888000993087A04280AD0FFE70599049B186879
:102898005A689B688B604A6008600AB080BD0299DC
:1028A8000398069A049B1B7807F8093C6B461A6044
:1028B80040F21823C2F22003A7F1090216F066FBC2
:1028C80080B56F468AB00293039204910590B86868
:1028D800069008920993087A04280AD0FFE7059918
:1028E800049B18685A689B688B604A6008600AB045
:1028F80080BD02990398069A049B1B7807F8093C47
:102908006B461A6040F21823C2F22003A7F10902AD
:1029180016F03CFB81B00090007800F0010001B097
:102928007047D0B502AF88B0FC68D7F808C00490EB
:1029380007F8121C07F8112C8DF8183007F80FCC7F
:102948000790EE46CEF80440CEF800C000F0BDFF78
:1029580000F0010007F81A0C07F8191C17F81A0CF0
:10296800C00768B9FFE717F8190C07F80E0C00281C
:1029780018BF01208DF80D0000208DF80C000CE028
:1029880017F8190C07F80D0C002818BF01208DF84E
:102998000D0001208DF80C00FFE79DF80C009DF854
:1029A8000D1008B0D0BD81B08DF802008DF803007D
:1029B8008DF801009DF8010001B0704780B56F46A1
:1029C80084B0019007F8051C039000F0A7FFC0B27F
:1029D800002818BF012004B080BD80B56F4684B0C0
:1029E800019007F8061C07F8052C039000F0ABFFD0
:1029F80004B080BD80B56F4684B0019107F8010C22
:102A080017F8010C02900299DFE801F00406040EA1
:102A18000400FEDE04B080BD019A40F22820C2F214
:102A28002000282116F058FA019A40F25020C2F2EC
:102A38002000312116F050FA80B56F4684B001911C
:102A480007F8010C17F8010C02900299DFE801F071
:102A58000404060E0400FEDE04B080BD019A40F2B4
:102A68008120C2F220002A2116F036FA019A40F29B
:102A7800AB20C2F22000322116F02EFA80B56F4644
:102A880084B0029207F8020C07F8011C00E0FEDE91
:102A980017F8010C01900199DFE801F00305030D17
:102AA800030004B080BD029A40F2DD20C2F220008B
:102AB800342116F011FA029A40F21130C2F22000C5
:102AC8003D2116F009FA80B56F4682B0009004F0F7
:102AD8006AFA019002B080BD80B56F4682B000905E
:102AE800083004F030FA019002B080BD80B56F461E
:102AF80084B00191014601980291039040F24E3151
:102B0800C2F22001022216F02FFE04B080BD80B56B
:102B18006F4684B044F6D460C2F22000029003905D
:102B2800019001F0E8F804B080BD80B56F46F4B0BC
:102B3800059106906F91069890F8700048B9FFE7E4
:102B480005986E9006990868486006990020886084
:102B580002E005986E9018E00698406804F01CFFA3
:102B68004FF4FA70FFF763FD014621A8039001F0C6
:102B7800AAF8039908A8049003F0ECFC04990698B5
:102B88000C30642217F011FDFFE706980C307390A3
:102B98006E9903F012FC07F8E50C17F8E50CC0076E
:102BA80078B9FFE706980C3004F05CF903203B90F5
:102BB80040F25841C2F220013BA815F016F8D8B9E6
:102BC8000CE001208DF81F000699032081F87000A1
:102BD8009DF81F0000F0010074B080BD0698806861
:102BE80046F6B751CBF2DB61484344F62511C2F2F1
:102BF800924188423DD347E0002007F80D0C17F8B2
:102C08000D1C48F29450C2F2000001F07DFE3C9089
:102C18003BA83CA914F0E9FF0028DFD0FFE706989D
:102C280000F1080145A814F0A9F84598469944917F
:102C3800439040F29841C2F220013DA8029043AA75
:102C480015F017F840F2B440C2F2200016F054F81C
:102C58000146029840F2A043C2F220034793112292
:102C6800489249934A924B913B9947AA14F0E2FE45
:102C7800B4E702204C9040F25841C2F220014CA81F
:102C880014F0B3FF70B9FFE70698806843F2A771A4
:102C9800CEF6BD11484346F22D41C0F62131884297
:102CA8003DD347E0002007F80E0C17F80E1C48F239
:102CB8009450C2F2000001F027FE4D904CA84DA997
:102CC80014F093FF0028DFD0FFE7069800F1080111
:102CD80056A814F053F8569857995591549040F2C5
:102CE800E041C2F220014EA8019054AA14F0C1FF9D
:102CF80040F2E840C2F2200015F0FEFF01460198BC
:102D080040F2A043C2F220035893112259925A93D9
:102D18005B925C914C9958AA14F08CFEB4E70120A0
:102D28005D9040F25841C2F220015DA814F05DFFA9
:102D380048B9FFE7069880687190012172910130C7
:102D48000699886008E7002007F80F0C17F80F1C91
:102D580048F29450C2F2000001F0D6FD5E905DA8E2
:102D68005EA914F042FF0028E4D0FFE7069800F1BE
:102D7800080167A814F002F8679868996691659049
:102D880040F21451C2F220015FA8009065AA14F025
:102D980070FF40F21C50C2F2200015F0ADFF014652
:102DA800009840F2A043C2F22003699311226A926C
:102DB8006B936C926D915D9969AA14F03BFEB9E72B
:102DC80080B56F4688B0019045F20000C2F200005D
:102DD80005900790002107F8051C17F8051C40F21C
:102DE800FC32C2F2200204F027FA029004907530F7
:102DF800012107F8111C17F8112C40F20C43C2F2FC
:102E08002003FFF7EAFD08B080BD80B56F4682B0A9
:102E1800019000F002F802B080BD80B56F46ADF6B3
:102E2800481D099040F24840C2F2200004F07CFAA4
:102E3800099800680290CDF8040491A8039002F064
:102E4800EDFA02980399809010A804904FF4E0726C
:102E5800059217F0AAFB0499059A0DF24C7006909A
:102E680017F0A3FB06990DF5836004F073FDDDF8F8
:102E78003404CDF80804DDF84004DDF84414DDF826
:102E88004824CDF81424CDF81014CDF80C040DF511
:102E980081600CF058FB024607920A46089247F8F0
:102EA800200C47F81C1C012007F82D0C17F82D0CD6
:102EB80000F00102A7F13C000DF20C4104F039FBCF
:102EC80057F83C0CF8B1FFE757F83C0C57F8381C9A
:102ED80057F8342C47F8082C47F80C1C47F8100C06
:102EE80040F22840C2F220006946086040F2603093
:102EF800C2F2200040F28C33C2F220032B21A7F14A
:102F0800100216F043F857F8380C019047F8040CF3
:102F180047F8180C44F20060C2F2C33003F0B1FA6B
:102F280000F0F2FE07F8120C17F8120CC00798B15F
:102F3800FFE740F23840C2F220006946086040F2DC
:102F48006030C2F2200040F25033C2F220032B213D
:102F5800A7F1110216F01AF801980899079A47F88C
:102F68002C2C47F8281C47F8240C57F82C0C57F839
:102F7800281C57F8242C0F920E910D900D980E993D
:102F88000F9A0C920B910A9044F6CC61C2F2200180
:102F98008F9190910A9A0B9884928590829283904F
:102FA800829A8398889189928A900A60486044F648
:102FB800D461C2F220018D918E910C9887908690F1
:102FC80086988B918C90086004F0FDFC0DF6481DE6
:102FD80080BD80B56F4684B0019101460198029189
:102FE800039040F22C51C2F22001122216F0BDFCCF
:102FF80004B080BD0B46014618685A689B688B6010
:103008004A60086070478C460146DCF80000DCF82E
:103018000420DCF80830DCF80CC0C1F80CC08B6068
:103028004A60086070478C460146DCF80000DCF80E
:103038000420DCF80830DCF80CC0C1F80CC08B6048
:103048004A600860704780B56F4682B00090019171
:1030580001F030FF02B080BD80B56F4682B00090AD
:1030680003F065FF019002B080BD80B56F4682B065
:10307800009003F05CFF019002B080BD80B56F4600
:1030880082B0009003F053FF019002B080BD80B57C
:103098006F4682B0009003F04AFF019002B080BDF5
:1030A80080B56F469AB00790089108A8039003F07E
:1030B8003EFF01460398019103F039FF09901990EA
:1030C80014F00FFE0146019821F0020112901391AD
:1030D800149014F075FE039803F029FF00F584702E
:1030E8001090002102911191159014F069FE039837
:1030F80003F01DFF029900F58C700E900F91169049
:1031080014F05EFE039803F012FF029900F5947024
:103118000C900D91179014F053FE039803F007FFDD
:10312800029900F59C700A900B91189014F048FED3
:103138000398FFF7ACFF014603980491FFF79EFF41
:10314800014603980591FFF787FF0146039806910A
:10315800FFF78BFFDDF810C0059B069A0799C1F8A9
:1031680000C04B608A60C8601AB080BD80B56F46E9
:1031780094B0039007F8351C099003F0EAFE014665
:1031880003984831049103F0E4FE48300B90129004
:1031980014F0A7FD20F02000059017F8350C18B999
:1031A800FFE70020079002E001200790FFE704985E
:1031B8000599079A02F0010241EA42110E900F9117
:1031C800109014F0FDFD039803F0C3FE0146039828
:1031D8004431009103F0BDFE44300A90139014F07E
:1031E80080FD20F44040019017F8350C014602910B
:1031F80002280BD0FFE7029803280AD0FFE70298BD
:10320800042809D0FFE70020089008E00120089072
:1032180005E00220089002E003200890FFE70098EC
:103228000199089A920392B211430C900D91119052
:1032380014F0C6FD14B080BD80B56F4694B00390FD
:1032480007F8351C099003F090FE014603984831B1
:10325800049103F08AFE48300B90129014F041FD5F
:1032680020F02000059017F8350C18B9FFE700206A
:10327800079002E001200790FFE704980599079A54
:1032880002F0010241EA42110E900F91109014F0E1
:1032980097FD039803F069FE0146039844310091B5
:1032A80003F063FE44300A90139014F01AFD20F4E2
:1032B8004040019017F8350C0146029102280BD0C6
:1032C800FFE7029803280AD0FFE70298042809D0EC
:1032D800FFE70020089008E00120089005E00220A0
:1032E800089002E003200890FFE700980199089AE7
:1032F800920392B211430C900D91119014F060FD5D
:1033080014B080BD80B56F468AB0019007F8191CCB
:10331800049003F02AFE014601984431029103F01B
:1033280024FE44300590099014F0DBFC0146029815
:1033380017F8192C62F3830106900791089014F08E
:103348003FFD0AB080BD80B56F468AB0019007F88E
:10335800191C049003F0FDFD0146019844310291C7
:1033680003F0F7FD44300590099014F0BAFC0146CB
:10337800029817F8192C62F38301069007910890B8
:1033880014F01EFD0AB080BD80B56F468CB0029166
:103398000090059007F8151C03F0E7FD014600981A
:1033A8004431019103F0E1FD443007900B9014F093
:1033B80098FC029920F08000039019B9FFE70020DB
:1033C800049002E001200490FFE701980399049A11
:1033D800D201D2B21143089009910A9014F0F0FC7E
:1033E8000CB080BD80B56F468CB0029100900590FE
:1033F80007F8151C03F0ADFD014600984431019112
:1034080003F0A7FD443007900B9014F06AFC029972
:1034180020F08000039019B9FFE70020049002E033
:1034280001200490FFE701980399049AD201D2B2CF
:103438001143089009910A9014F0C2FC0CB080BDA9
:1034480080B56F4690B0039007F8211C0A9003F0EE
:103458008CFD014603984431049103F086FD443005
:103468000B900F9014F03DFC20F44470059017F871
:10347800210C06900699DFE801F00306090CFEDE30
:103488000320089008E00120089005E00320089038
:1034980002E000200890FFE70598089901F0030171
:1034A80040EA0120019017F8210C02900299DFE808
:1034B80001F00205080B0120099008E0012009909D
:1034C80005E00020099002E000200990FFE7049839
:1034D8000199099A02F0010241EA02110C900D913A
:1034E8000E9014F06DFC10B080BD000080B56F46E2
:1034F80090B0039007F8211C0A9003F02AFD0146BA
:1035080003984431049103F024FD44300B900F904C
:1035180014F0E7FB20F44470059017F8210C06908E
:103528000699DFE801F00306090CFEDE0320089087
:1035380008E00120089005E00320089002E0002040
:103548000890FFE70598089901F0030140EA012077
:10355800019017F8210C02900299DFE801F00205AA
:10356800080B0120099008E00120099005E00020DF
:10357800099002E000200990FFE704980199099A50
:1035880002F0010241EA02110C900D910E9014F024
:1035980017FC10B080BD80B56F469CB00B9007F843
:1035A8003E1C07F83D2C0BA8089003F0D2FC0146FE
:1035B80008984831099103F0CCFC483013901A90D0
:1035C80014F08FFB20F001000A9017F83E0C022837
:1035D80003D1FFE701200D9002E000200D90FFE7E6
:1035E80009980A990D9A02F0010211431690179151
:1035F800189014F0E5FB0BA8049003F0AAFC014610
:1036080004984431059103F0A4FC443012901B90B7
:1036180014F067FB40F263418843069017F83E0CAC
:103628000146079130B1FFE70798012805D0FFE769
:1036380006E0FEDE00200E9005E001200E9002E07C
:1036480003200E90FFE7059806990E9A02F00302F0
:10365800114317F83D2C02F0030241EA421141F4EC
:10366800806114901591199014F0AAFB0B980F9093
:103678000120029007F82D0C17F82D1C0FA80390B5
:10368800FFF761FE039800210191FFF7ABFE039855
:1036980004218DF844109DF84410FFF767FD019947
:1036A800039807F82B1C17F82B1CFFF71FFF03982C
:1036B80000F0B5F80299039807F82A1C17F82A1C95
:1036C800FFF754FD0299039807F8291C17F8291CDD
:1036D800FFF70CFF0F981CB080BD80B56F469CB0FB
:1036E8000B9007F83E1C07F83D2C0BA8089003F038
:1036F8003CFC014608984831099103F036FC4830F3
:1037080013901A9014F0EDFA20F001000A9017F8BF
:103718003E0C022803D1FFE701200D9002E00020B3
:103728000D90FFE709980A990D9A02F001021143DA
:1037380016901791189014F043FB0BA8049003F00F
:1037480014FC014604984431059103F00EFC443002
:1037580012901B9014F0C5FA40F26341884306901A
:1037680017F83E0C0146079130B1FFE7079801288A
:1037780005D0FFE706E0FEDE00200E9005E0012000
:103788000E9002E003200E90FFE7059806990E9A26
:1037980002F00302114317F83D2C02F0030241EA3C
:1037A800421141F4806114901591199014F008FBAE
:1037B8000B980F900120029007F82D0C17F82D1C7C
:1037C8000FA80390FFF79EFD039800210191FFF7D2
:1037D800DBFD039804218DF844109DF84410FFF791
:1037E8002BFD0199039807F82B1C17F82B1CFFF7E2
:1037F80027FE039800F03EF80299039807F82A1C60
:1038080017F82A1CFFF718FD0299039807F8291CD6
:1038180017F8291CFFF714FE0F981CB080BD80B55F
:103828006F468CB00190039003F093FB014601981A
:103838004831029103F08DFB483006900A9014F04D
:1038480050FA0146029841F08001079008910990CA
:1038580014F0B6FAFFE7019803F07BFB58300590A7
:103868000B9014F03EFA049000070028F3D1FFE70C
:103878000CB080BD80B56F468CB00190039003F00A
:1038880074FB014601984831029103F06EFB483001
:1038980006900A9014F025FA0146029841F080013A
:1038A80007900891099014F08BFAFFE7019803F04C
:1038B8005CFB583005900B9014F013FA0490000745
:1038C8000028F3D1FFE70CB080BDD0B502AF88B0B7
:1038D8000593134604938C46CDF80CC0864605988C
:1038E800CDF808E0FA68B9680191CDF818E08DF8CC
:1038F8001CC007F80B3C07F80A0C07F8091CFFF76F
:10390800BDF8DDF804C002980399049A059BEE46B9
:10391800CEF800C001F04CF808B0D0BD80B56F46B5
:1039280086B001920A4601990392024603980292D0
:10393800049207F8010CFFF75DF80298039901F06B
:103948004DF806B080BD80B56F4686B000930392EF
:103958000A4600990292034603980193049307F8D4
:10396800022C07F8010CFFF767F801980299039AEF
:1039780001F03FF806B080BD80B56F4694B0019263
:103988000091014600980591129027F8022C02F048
:103998007BFC0099039006A808220292FF2302F0FC
:1039A800A5FC009802F070FC0099019A049009A8FF
:1039B80002F0EAFA0099019A0CA802F017FBDDF868
:1039C80008C0039B049A0599002007F80A0C07F819
:1039D800090C17F80AEC8DF842E08DF840C017F88A
:1039E80009CC8DF841C04FF4FA5CCDF83CC081F8A1
:1039F8002C30069BDDF81CC0DDF820E0C1F810E093
:103A0800C1F80CC08B6081F82D20099A0A9BDDF85B
:103A18002CC0C1F81CC08B614A610C9A0D9BDDF863
:103A280038C0C1F828C04B620A620F9A109B4B60DD
:103A38000A6081F82E0081F82F0014B080BD80B58F
:103A48006F4694B0049004A8029003F0A6FA0146C9
:103A58000298019103F0A1FA0790119014F041F92E
:103A68000146019821F001010C900D910E9014F07F
:103A7800A7F9029803F091FA01460298039103F01E
:103A88008CFA0690129014F02CF90146039841F430
:103A980000410A900B910F9014F092F9FFE704A8E7
:103AA80003F07BFA0590139014F01BF981B2012002
:103AB800B0EBD13FF3D0FFE704A803F06EFA08306B
:103AC80008903F210991109014F07AF9049814B0E5
:103AD80080BD80B56F4694B0049004A8029003F0AE
:103AE8004AFA01460298019103F045FA07901190AD
:103AF80014F0F7F80146019821F001010C900D919E
:103B08000E9014F05DF9029803F035FA0146029818
:103B1800039103F030FA0690129014F0E2F801468F
:103B2800039841F400410A900B910F9014F048F962
:103B3800FFE704A803F01FFA0590139014F0D1F8DA
:103B480081B20120B0EBD13FF3D0FFE704A803F026
:103B580012FA083008903F210991109014F030F9BA
:103B6800049814B080BD80B56F4688B0009002906C
:103B780003F001FA01460098019103F0FCF9039063
:103B8800079014F0AEF80146019821F00101049065
:103B98000591069014F014F908B080BD80B56F4601
:103BA80088B00090029003F0F8F90146009801915E
:103BB80003F0F3F90390079014F093F80146019885
:103BC80021F0010104900591069014F0F9F808B06D
:103BD80080BD80B56F4694B002910390059101F2C3
:103BE8001240032107F83E1C17F83E2C12900121C1
:103BF80007F8021C07F8012C00F0A4FD50BBFFE7F2
:103C080002981190069009900A90002207F8212C3A
:103C180001210C910E9007F8112C109107F8192C1E
:103C280017F8192C02F0010203F0A9FA02984FF4D0
:103C3800806116F051FC029803F080F80146029862
:103C48000191079103F07AF8019A039908900A60A4
:103C5800486009E00399022007F83D0C17F83D0C6D
:103C6800087100200860FFE714B080BD80B56F467A
:103C780086B001920A46019903920246039802927D
:103C8800049207F8010CFEF7B5FE0298039901F0BB
:103C9800D6FD06B080BD80B56F4688B0019304920A
:103CA8000A460199039203460498029305930692E3
:103CB80007F8010CFEF7C0FE02980399049A01F078
:103CC800ECFD08B080BD82B00091014600980190DB
:103CD8000860002081F8600002B0704780B56F4628
:103CE80082B0012007F8010CFEF711FF002002F056
:103CF80015F902B080BD80B56F4682B00190019879
:103D080003F00AFA02B080BD80B56F46EEB045F206
:103D18000000C2F2000029902B90002106918DF836
:103D2800AB109DF8AB1040F2B052C2F2200203F083
:103D380083FA069902460792269028907430032247
:103D48008DF89E208DF89F109DF89E309DF89F203D
:103D580040F2E05EC2F2200EEC46CCF804E0CCF86B
:103D680000200122FEF7DDFD00F001008DF89C0027
:103D78008DF89D1027A8FEF772FD20B9FFE70120F6
:103D88008DF8230032E044F6CC61C2F220016C9138
:103D98006D916B9109A8029000F02EF8029907988E
:103DA800499068904AA803907422059216F0FDFB8A
:103DB8000399059A2CA8049016F0F7FB0499059A24
:103DC8000798679016F0F1FB07986A907530012103
:103DD80007F8111C17F8112C40F2D053C2F2200337
:103DE800FEF7FBFD00208DF82300FFE79DF8230078
:103DF80000F001006EB080BD82B0009101460098CD
:103E080001900860002081F8700002B0704780B50A
:103E18006F469CB0FFE745F20000C2F20000079031
:103E280009900021049107F84D1C17F84D1C40F229
:103E3800B052C2F2200203F0FFF90499024605923B
:103E48000690119044F6B522C0F200021292179023
:103E5800743007F8151C17F8151C40F2C052C2F24E
:103E68002002FEF7ABFD00285BD0FFE7059819900C
:103E78007530022107F80E1C002207F80D2C17F8E0
:103E88000E3C17F80D1C40F2F05EC2F2200EEC4614
:103E9800CCF804E0CCF800100121FEF742FD00F058
:103EA80001008DF860008DF8611018A8FEF7D7FCA6
:103EB800B8B3FFE705981A9044F6B520C0F20000A1
:103EC8001B9044F25C21C2F2200103F081FB03F055
:103ED80064FB0A900B910CA803900AA903F062FBFB
:103EE80005980399159014901390FEF71EFE07F895
:103EF8002E0C17F82E0CC00778B9FFE70598743018
:103F0800012107F82D1C17F82D2C40F20063C2F28E
:103F180020030021FEF761FDFFE70AA812F0C5FFA4
:103F2800FFE778E780B56F46ADF50E7D03F050FDED
:103F380003F03FF840F21C60C2F2200003F0F4F9ED
:103F4800712002908DF826000120042101F0BAF9B1
:103F580002469DF826100DF1250003F0E8F90298B5
:103F68008DF827009DF8270003F018FA0020039029
:103F78000A9053A8049070A97422059216F015FBB4
:103F88000398FEF710FD0146039807F8021C17F87E
:103F9800021C8DF83412FEF706FD0499059A07F8FD
:103FA800010C17F8010C07F8030C29A8069016F065
:103FB800FCFA06999DF834028DF8180117F8030CDD
:103FC8008DF819010BA80790782216F0EEFA0798D9
:103FD800FEF748FB0A9908440246089288421AD319
:103FE800FFE708980A9045F20000C2F200005190DD
:103FF8000BA95291002207F8F52C17F8F52C40F27E
:10400800A053C2F2200303F021F944F20000C2F2E7
:10401800000030B910E040F21C60C2F2200016F037
:1040280043F844F20000C2F200004E9048F2985063
:10403800C2F2000030B911E040F21C60C2F2200068
:1040480014F092FF48F29851C2F200014F9144F2E5
:104058000000C2F2000088420BD805E040F21C6064
:10406800C2F2200014F080FF0AA8FEF7CEFEFFF788
:10407800CEFE03F059F848F29851C2F20001884286
:10408800F2D8FFE740F25861C2F2200147A8019038
:1040980013F006FE019840F21C61C2F2200114F0F0
:1040A800FCFE80B56F4613F0B8F900F076FF80BDCE
:1040B800B0B502AF81B007F8092C81F82220B1E829
:1040C8001C50A0E81C5091E83C5080E83C5001B0DE
:1040D800B0BDB0B502AF84B000910190D0B2114626
:1040E800029107F8092C08281AD0FFE70298C0B2F5
:1040F800102815D0FFE70298C0B2202810D0FFE79B
:104108000298C0B240280BD0FFE740F26060C2F2CC
:10411800200040F2E062C2F22002192114F0DCFE15
:1041280000990198029A81F82520B1E81C50A0E86E
:104138001C5091E83C5080E83C5004B0B0BDD0B56C
:1041480002AF92B094461091ADF844C0ADF8463035
:1041580000220A920C920E928DF81E208DF81F20D4
:104168008DF820204FF0080E8DF821E0ADF818C02A
:10417800ADF81A301023ADF81C30DDF828C00B9BC1
:10418800CDF800C00193DDF830C00D9BCDF808C014
:104198000393DDF838C00F9BCDF810C005938DF858
:1041A80023208DF824208DF8252032228DF8222016
:1041B80040F8041B6946B1E81C50A0E81C5091E87F
:1041C8001C5080E81C5012B0D0BDF0B503AF4DF8BC
:1041D800048D8AB08C465CF8041B6A461346BCE81A
:1041E8007041A3E870419CE8704183E8704100F099
:1041F800BFF90AB05DF8048BF0BDB0B502AF84B06A
:104208000292039300920193009B019ACB600A618A
:10421800B1E81C50A0E81C5091E83C5080E83C50A4
:1042280004B0B0BDF0B503AF2DE9000BADF5BD6D21
:10423800099307920A46014607988DF85B20BE90BD
:10424800BF9348F26012C2F2000247F8202C47F8E8
:104258001C0C47F8240C57F8240C10606A460120FF
:104268001590106045F21402C2F2000246F20003F3
:10427800C2F2000317A80A9001F0C7FD40F2F061EE
:10428800C2F220010DF15B00089002F034FF0146F4
:104298000A980FF0F1FA089A099B0A98002101F090
:1042A8001EFE0A9A37A90846B2E81850A0E8185026
:1042B800B2E83850A0E8385092E8385080E83850D2
:1042C80025A80B9001F034FE0B9948F20000C2F2C9
:1042D80000001090E890D6A80C9048220E9216F094
:1042E80064F90C990E9AC4A80D9016F05EF90D9910
:1042F8000E9A109816F059F91099C09145A80F9088
:104308004FF40072FFF738FB0F9B109948F24800F2
:10431800C2F20000CDF804040DF5757C6246B3E8DE
:104328007043A2E8704393E8704382E87043E9AAB7
:104338001346BCE87043A3E870439CE8704383E8E5
:104348007043B2E87850A0E8785092E8785080E856
:104358007850ACA8119045F6240242F2DD73FFF7BD
:10436800EEFE119940F2F162C2F22002A1A8129069
:104378000923FFF742FF129996A813900222FFF72C
:1043880097FE13998BA814904022FFF7A2FE149968
:1043980051A8FFF71AFF1598082113F0E7F9B7900D
:1043A800B891FFE7B7A813F0D9F9B990BA91B998BD
:1043B80000BBFFE748F27800C2F20000049047F81B
:1043C800280C0DF59E60039051A9E822069216F07C
:1043D800ECF80399069A0DF58160059016F0E5F85A
:1043E80004980599069A16F0E0F80DF5BD6DBDE83C
:1043F800000BF0BDBA980290C19040F2FA60C2F288
:10440800200002F085FCBB90BC91FFE7BBA8FEF73B
:10441800DBF8BD90BD980028C4D0FFE70298BD998D
:10442800C291097802F077FF01908DF80F0351A827
:1044380005F035FE01990FF03AFAE7E780B56F46C7
:1044480086B00192024601980292039105900EF0FF
:1044580085FC01980EF09DFD029840F2F061C2F2D1
:10446800200102F048FE014601980EF0B8FD0198BF
:104478000121049104990EF0E5FC0198039909685B
:104488000EF01FFD01980EF0A3FC06B080BD80B5AC
:104498006F4686B001910290049141F238100844A9
:1044A800042107F8091C17F8092C4FF0004100F007
:1044B800ADFA019A014602980591C943C90F00F067
:1044C80008F906B080BDF0B503AF4DF804BD8AB059
:1044D80008900991099801900620039010210491F1
:1044E80011F0A9F80146019840F25872C2F2200270
:1044F80002F009FB054603980C460499099A02F54F
:104508008052029211F097F80146029840F26872C0
:10451800C2F2200202F020FB0246039807920A46E4
:1045280004990692099A02F58652059211F083F8C9
:104538000146059840F27872C2F2200202F0BAFAF7
:10454800DDF818C0DDF81CE003460A46089909980A
:1045580041F2381630440D604C60C1F808E0C1F8EB
:104568000CC00B614A6188610AB05DF804BBF0BDFC
:10457800F0B503AF4DF804BDCEB00C9208910E9083
:104588004C9140F2E871C2F2200100240F942046B9
:1045980007F04EFA08990C9A07F8EE0C01200490DF
:1045A80007F8EF0C07F8ED4C92F821E017F8EF0C3C
:1045B80017F8EE3C17F8ED2CEC46CCF80840CCF890
:1045C80004E0CCF8002000F0010213A8039001F0E9
:1045D8008FFD039940F2F870C2F220006A4610601D
:1045E80040F28C02C2F22002069210A80990202301
:1045F8000793FEF765F940F60801C2F22001802012
:1046080007F016FA08990C9A0346049807F8D23C62
:1046180007F8D30C07F8D14C92F821E017F8D30C1F
:1046280017F8D23C17F8D12CEC46CCF80840CCF857
:1046380004E0CCF8002000F001021AA8059001F06F
:1046480007FD0599069A079B40F61800C2F220005C
:10465800EC46CCF8000017A80A90FEF707F908986E
:1046680001F0D2FD09990A9A0B904D901EA80D9061
:10467800FDF765FF0B9A0C9B0D990E98DDF83CC071
:1046880007F81ACC4FF0040C07F819CCC0F8DC2056
:1046980000F1B402B3E87050A2E8705093E870508B
:1046A80082E87050B42215F080FF0E990F9817F821
:1046B8001A2C81F8E22081F8E00081F8E10017F86F
:1046C800192C81F8E32081F8E4004EB05DF804BBB2
:1046D800F0BD80B56F468CB00192029007F8051CBA
:1046E8000B9221B9FFE70299002008600FE00199B9
:1046F80003A80090FFF7E7FE02980099B1E80C10B4
:10470800A0E80C1091E80C5080E80C50FFE70CB0C2
:1047180080BD81B08DF803008DF802009DF802007D
:1047280001B0704780B56F4684B0019007F8051C4A
:10473800039006F0FBFDC0B2002818BF012004B0AA
:1047480080BD000094B00A908DF836200E908DF848
:104758003F1001228DF840208DF8412000228DF86D
:1047680042208DF843201190129008460B908DF846
:104778004F109DF836000C900C99DFE801F00423E7
:1047880044658800FEDE0A9800780990FFE70999D9
:104798000A9BDDF82CC0C9B2D3E84F0F084503D1F6
:1047A800C3E842CF002AF7D10890C9B2411AB1FA3A
:1047B80081F1490901290990E9D1FFE708988DF8A5
:1047C800370087E00A98BFF35F8F00780790FFE70C
:1047D80007990A9BDDF82CC0C9B2D3E84F0F0845EA
:1047E80003D1C3E842CF002AF7D10690C9B2411AD3
:1047F800B1FA81F1490901290790E9D1FFE7069843
:104808008DF8370066E00A9800780590FFE705996B
:104818000A9BDDF82CC0C9B2D3E84F0F084503D175
:10482800C3E842CF002AF7D10490C9B2411AB1FABD
:1048380081F1490901290590E9D1FFE70498BFF3FF
:104848005F8F8DF8370045E00A98BFF35F8F0078D7
:104858000390FFE703990A9BDDF82CC0C9B2D3E89F
:104868004F0F084503D1C3E842CF002AF7D1029081
:10487800C9B2411AB1FA81F1490901290390E9D174
:10488800FFE70298BFF35F8F8DF8370022E00A98A0
:10489800BFF35F8F00780190FFE701990A9BDDF86D
:1048A8002CC0C9B2D3E84F0F084503D1C3E842CFA3
:1048B800002AF7D10090C9B2411AB1FA81F1490929
:1048C80001290190E9D1FFE70098BFF35F8F8DF8C8
:1048D8003700FFE79DF83700002818BF012014B003
:1048E800704780B56F4684B0019007F8061C07F83A
:1048F800052C039006F080FD04B080BD82B00190C5
:104908000090009802B0704780B56F4684B001905F
:1049180007F8051C039013F003FE04B080BD80B5B2
:104928006F4684B00090019107F8052C039013F0AE
:1049380059FE04B080BD000080B56F468AB007F804
:104948001D0C40F65400C2F22000099017F81D0C07
:1049580001900199DFE801F0041E21242700FEDE02
:1049680040F65400C2F2200003900120049040F663
:104978006C00C2F22000016840680791089004208A
:1049880005900020069040F6F001C2F2200103A82D
:1049980014F083FABFF35F8F08E0BFF35F8F05E081
:1049A800BFF35F8F02E0BFF35F8FFFE70AB080BD00
:1049B80080B56F4684B0D7F808C001908DF808100C
:1049C80007F8072C07F8063C07F805CC0390EE46D5
:1049D800CEF800C000F06EFF04B080BD80B56F4611
:1049E80084B0019007F8051C039006F09FFC04B002
:1049F80080BD80B56F4684B0019007F8061C07F8A3
:104A0800052C039006F0F8FC04B080BD93B00A9121
:104A18000B908DF837200F901091119012909DF8FF
:104A280037000C900C99DFE801F00421405F80000A
:104A3800FEDE0B9800680990FFE709990B9B0A981E
:104A480041EA000C53E8000F084503D143E800C2CF
:104A5800002AF7D10890411AB1FA81F149090129D0
:104A68000990EAD1FFE708980E907FE00B98BFF312
:104A78005F8F00680790FFE707990B9B0A9841EA48
:104A8800000C53E8000F084503D143E800C2002A90
:104A9800F7D10690411AB1FA81F149090129079025
:104AA800EAD1FFE706980E9060E00B980068059041
:104AB800FFE705990B9B0A9841EA000C53E8000FA1
:104AC800084503D143E800C2002AF7D10490411AEF
:104AD800B1FA81F1490901290590EAD1FFE7049863
:104AE800BFF35F8F0E9041E00B98BFF35F8F0068B4
:104AF8000390FFE703990B9B0A9841EA000C53E8DF
:104B0800000F084503D143E800C2002AF7D10290FC
:104B1800411AB1FA81F1490901290390EAD1FFE765
:104B28000298BFF35F8F0E9020E00B98BFF35F8F62
:104B380000680190FFE701990B9B0A9841EA000C75
:104B480053E8000F084503D143E800C2002AF7D113
:104B58000090411AB1FA81F1490901290190EAD17D
:104B6800FFE70098BFF35F8F0E90FFE70E9813B032
:104B7800704780B56F4684B00290039100F060F8EA
:104B880007F8090C17F8090C022809D0FFE717F8ED
:104B9800090CFF38B0FA80F0400907F80A0C03E066
:104BA800002007F80A0CFFE717F80A0C00F00100CC
:104BB80004B080BD81B0014600910868496801B021
:104BC800704780B56F46482215F0EFFC80BD80B570
:104BD8006F465C2215F0E9FC80BD81B0009000684A
:104BE80001B0704780B56F4688B0009101460098C3
:104BF8000391069002F0F4FC019008460099029097
:104C08008868049001F10C00002107F8091C17F8C6
:104C1800091CFFF787FDFFF77CFD019B029A0399AA
:104C28008446049807F801CC17F801CC07F80ACC99
:104C38000B604A60886017F80A0C087308B080BDDA
:104C480080B56F4682B0009001910830083112F0AB
:104C5800B0FB02B080BD81B00090006801B0704721
:104C680080B56F4684B002900430042107F8091C0F
:104C780017F8092C0121FFF734FEFDF704FD04B0F5
:104C880080BD83B0009101460098019002920864AB
:104C98008A61002081F8450003B0704780B56F46EF
:104CA800AAB00A910C9022910C9890F84500014600
:104CB8000B9130B1FFE70B98012818D0FFE71AE0F5
:104CC800FEDE0A9821900C98002180F844100C9878
:104CD800006C099024900C9B9A69DA61043007F8FB
:104CE800711C17F8711CFFF71DFDB0B906E0002014
:104CF8000028FCD16BE00A9821905CE040F6541142
:104D0800C2F220010EA8089012F0CAFF089840F6D7
:104D1800B811C2F2200114F0C0F80C9900200390D9
:104D280008620C9901F1200048630C980290343015
:104D3800FFF753FF029B0999024603989A6325914E
:104D48000C990491FFF7DAFD049A01460998269117
:104D58002699D1630C993C31069127910C9A0592BA
:104D6800FDF76EFB059B844606980A460999C3F829
:104D780010C05A610C9B012283F844200C9A02F15E
:104D88001C0338321C931D921E911F9018A807907F
:104D98001CA9FEF738F9079914A8FEF744F90C99ED
:104DA8001498159A169BDDF85CC0C1F80CC08B608E
:104DB8004A600860FFE70C9829902199FEF743F9AB
:104DC80007F8260C17F8260CC00730B10EE040F69D
:104DD800C810C2F2200015F0D9F90C983430FFF74A
:104DE8003AFF01460191006868B918E0012007F808
:104DF800720C0C99032081F8450017F8720C00F02A
:104E080001002AB080BD019828900C30002107F8D5
:104E1800251C17F8251CFFF785FC58B909E00C99E3
:104E2800002081F844000C9908694969FDF721FCC4
:104E38000AE009E00C99002081F844000C990869FF
:104E48004969FDF708FBFFE70C9890F84400C00794
:104E5800B0B9FFE70C990020009081F844000C9845
:104E6800203001F0CFFF009807F8720C0C99012050
:104E780081F8450017F8720C00F001002AB080BDD7
:104E88000C98103001F0CCFFE4E780B56F4684B091
:104E980001900291019800900298002107F8011CE6
:104EA80017F8011CFFF730FD0146009801F085FB5B
:104EB80004B080BD80B56F469EB0089109901690E9
:104EC800179112F0AFFA014609980B9101680BA8E7
:104ED80001F041FA58B9FFE709984068FFF7BBFEAF
:104EE80001460791189000F091FA40B903E00020BC
:104EF80007F84D0C4BE0012007F84D0C47E00898E7
:104F080002F061FB02F06CFB0246099801920291E3
:104F180000680068039000200590FFF7FAFB019AEB
:104F280002990346039807F8113C17F8113C07F853
:104F3800223C11921291139017F8220C8DF8500010
:104F48000CA8049011A901F019FB0798049900F026
:104F580038FA014609981A9180681D9101F0B5FB4D
:104F6800059A0346099803F00103069307F8093CDC
:104F78001C91C06807F8212C17F8212CFFF7CFFCEB
:104F880006980028B7D0FFE712F077FAB3E717F8CA
:104F98004D0C00F001001EB080BD80B56F4694B086
:104FA8000090139012F068FA12F06CFAFFE700997B
:104FB8000020019003A801AA01F042FC019902987F
:104FC800039A049BDDF814C0DDF818E0CDF828E05A
:104FD800CDF824C0089307920B910C90079818B944
:104FE800FFE70B9868B10FE007980899099A0A9BA0
:104FF80010930F920E910D900D980E9902F0BCFA35
:10500800D5E712F059FA10E00C98119012F053FA03
:10501800119812F02DFA12F005FA129012A811A99F
:1050280001F099F90028C2D1FFE714B080BD80B51E
:105038006F468AB00390089151F8080F01910590C6
:10504800012004900399049A05980A60486012F0B8
:10505800E9F90199069006A801F07DF90146019841
:10506800029107F8011C0430002207F8092C17F8F0
:10507800092CFFF736FC02980AB080BD83B0009176
:10508800014600980190029208604A60002081F869
:10509800580003B0704780B56F46B6B007910990C5
:1050A8003191099890F858000146089130B1FFE70E
:1050B8000898012822D0FFE724E0FEDE0798309008
:1050C80009980068039033900998406805903490D7
:1050D8000998049012F0A6F9049A05999060099825
:1050E8000690806811F09FFF0699C860099901F140
:1050F80008000C3111F0C2FFD0B906E000200028EA
:10510800FCD12AE0079830901AE003990998C26800
:105118001DA80190FFF7B5FD01990BA80290FFF7B4
:1051280050FD029909981030482215F03EFA07E020
:105138000998C068012111F076FF0999C860E4E771
:105148000998103035903099FFF7A8FD07F8190C29
:1051580017F8190CC00730B116E040F6D810C2F2A3
:10516800200015F013F80998103001F02BFE0020EC
:1051780007F8AD0C0999012081F8580017F8AD0C13
:1051880000F0010036B080BD012007F8AD0C099988
:10519800032081F8580017F8AD0C00F0010036B074
:1051A80080BD80B56F4686B0009101900390049150
:1051B80012F05EFB00990246019807F8012C07F8E7
:1051C8000D2C01F004FAA7F10D0005F03AFC06B029
:1051D80080BD80B56F4688B000910190059006911A
:1051E80012F046FB00990246019807F8012C07F8CF
:1051F8000D2C01F077FA02900391A7F10D0005F04C
:1052080020FC0298039908B080BD80B56F4688B02D
:105218000292019103900591069212F029FB0199DF
:10522800029A0346039807F8013C07F80D3C01F081
:1052380010FBA7F10D0005F004FC08B080BD80B597
:105248006F4684B00191029012F012FB0199024658
:10525800029807F8012C07F8022C02F029F9B81E69
:1052680005F0EFFB04B080BD80B56F4684B00190B7
:1052780001F02DFE029007F8010C02F0A9FB12F0D4
:105288003FFB0198F91E00F09BFD029801F038FEE3
:1052980010B9FFE704B080BD02F095FBFAE780B5CE
:1052A8006F4686B00090FDF70EFC0146009801910C
:1052B80004910291FDF710FC0146019805910391B4
:1052C80006B080BD80B56F4686B00246C8B20B46B0
:1052D80003931346049307F8022C07F8011C0728C8
:1052E8000CD8FFE70498039901F0070201219140C7
:1052F8000A1AC0B2029288420ED805E040F6502041
:10530800C2F2200014F01CFF0398C0F10801C0B2DB
:10531800019108280BD805E040F66020C2F2200071
:1053280014F0D5FE0198C0B2082806D30CE040F668
:105338007020C2F2200014F0CAFE0298019901F010
:105348000701884006B080BD40F66020C2F2200008
:1053580014F0F6FE80B56F4688B000930192029172
:10536800039004910592006828B9FFE7009A019913
:10537800029813F016FD039948688968069007910A
:1053880008B080BD80B56F4688B001930292039142
:105398000490B868059006920793086828B9FFE753
:1053A800059A0199029813F0FCFC03990498B1E856
:1053B8000C10A0E80C1091E80C5080E80C5008B0D4
:1053C80080BDB0B502AF8CB00A460290099003A91F
:1053D800019192E8385081E8385001F013FD019AA4
:1053E8000298014692E8385081E83850006828B998
:1053F800FFE70020089001F091FD06E002980A906E
:10540800089008980B900CB0B0BDFEDE81B00090FB
:105418000068B0FA80F0400901B0704780B56F4667
:10542800F2B0009002A801900AF06BF80098019978
:105438004FF4E07215F0B9F872B080BD80B56F46D0
:1054480094B0019007F8411C119040F6B420C2F2C4
:105458002000129040F6E420C2F22000139017F8C2
:10546800410C02900299DFE801F00408222842006A
:10547800FEDE0198006804903FE040F6E420C2F2A6
:10548800200005900120069040F66C00C2F2200032
:105498000168406809910A9004200790002008904C
:1054A80040F66031C2F2200105A813F0F6FC01981D
:1054B8000068BFF35F8F04901FE040F6B420C2F28B
:1054C80020000B9001200C9040F66C00C2F22000E6
:1054D800016840680F91109004200D9000200E90F4
:1054E80040F67031C2F220010BA813F0D6FC0198E7
:1054F8000068BFF35F8F0490FFE7049814B080BD85
:1055080080B56F4694B0019007F8411C119040F6A1
:10551800B420C2F22000129040F6E420C2F220002B
:10552800139017F8410C02900299DFE801F0040883
:1055380022284200FEDE0198006804903FE040F611
:10554800E420C2F2200005900120069040F66C008D
:10555800C2F220000168406809910A90042007906F
:105568000020089040F66031C2F2200105A813F02F
:1055780094FC01980068BFF35F8F04901FE040F629
:10558800B420C2F220000B9001200C9040F66C0071
:10559800C2F22000016840680F91109004200D901D
:1055A80000200E9040F67031C2F220010BA813F0D3
:1055B80074FC01980068BFF35F8F0490FFE70498BC
:1055C80014B080BD80B56F4694B00091019007F883
:1055D800412C1090119140F6B430C2F22000129084
:1055E80040F6E830C2F22000139017F8410C029000
:1055F8000299DFE801F004080E284200FEDE009858
:105608000199086041E000980199BFF35F8F086035
:105618003BE040F6E830C2F22000049001200590FB
:1056280040F66C00C2F220000168406808910990B9
:10563800042006900020079040F6F031C2F22001C5
:1056480004A813F02AFC40F6B430C2F220000A90F5
:1056580001200B9040F66C00C2F2200001684068FF
:105668000E910F9004200C9000200D9040F6004100
:10567800C2F220010AA813F010FC00980199BFF3A8
:105688005F8F0860BFF35F8FFFE714B080BD000035
:1056980080B56F4694B00091019007F8412C1090A6
:1056A800119140F6B430C2F22000129040F6E83072
:1056B800C2F22000139017F8410C02900299DFE81B
:1056C80001F004080E284200FEDE009801990860E7
:1056D80041E000980199BFF35F8F08603BE040F616
:1056E800E830C2F2200004900120059040F66C00DA
:1056F800C2F22000016840680891099004200690D1
:105708000020079040F6F031C2F2200104A813F0FF
:10571800C4FB40F6B430C2F220000A9001200B907E
:1057280040F66C00C2F22000016840680E910F90AC
:1057380004200C9000200D9040F60041C2F2200198
:105748000AA813F0AAFB00980199BFF35F8F0860BD
:10575800BFF35F8FFFE714B080BD000080B56F46D0
:1057680094B00091019007F8412C1090119140F6E7
:10577800B430C2F22000129040F6E830C2F22000A5
:10578800139017F8410C02900299DFE801F0040821
:105798000E284200FEDE00980199086041E000985A
:1057A8000199BFF35F8F08603BE040F6E830C2F232
:1057B800200004900120059040F66C00C2F2200001
:1057C800016840680891099004200690002007901D
:1057D80040F6F031C2F2200104A813F05EFB40F657
:1057E800B430C2F220000A9001200B9040F66C0001
:1057F800C2F22000016840680E910F9004200C90BE
:1058080000200D9040F60041C2F220010AA813F0D2
:1058180044FB00980199BFF35F8F0860BFF35F8F67
:10582800FFE714B080BD82B001900090009802B0EC
:10583800704782B001900090009802B0704780B520
:105848006F4684B0019007F8051C0390FFF7F6FD3A
:1058580004B080BD80B56F4684B0019007F8051C80
:105868000390FFF74DFE04B080BD80B56F4684B04D
:105878000090019107F8052C0390FFF709FF04B089
:1058880080BD80B56F4684B00090019107F8052C63
:105898000390FFF763FF04B080BD80B56F4684B006
:1058A8000090019107F8052C0390FFF78BFE04B0D8
:1058B80080BD0000D0B502AF9EB09C460790BB6883
:1058C8009646CDF820E00C46099407F852CC07F824
:1058D800513C199007F8161C07F8152C40F644405F
:1058E800C2F220001B9040F68C40C2F220001C90AF
:1058F80017F8520C0A900A99DFE801F004132537CB
:105908004900FEDE17F8510C01460691002856D0D2
:10591800FFE70698022869D0FFE7069804287ED09A
:1059280047E017F8510C01460591002800F0A280C5
:10593800FFE70598022800F0B680FFE705980428DD
:1059480000F0CC8035E017F8510C0146049100288E
:1059580000F0DF80FFE70498022800F0F380FFE7FB
:105968000498042800F0078123E017F8510C014639
:105978000391002800F01A81FFE70398022800F03D
:105988003081FFE70398042800F0468111E017F8FA
:10599800510C01460291002800F05981FFE7029856
:1059A800022800F06F81FFE70298042800F0858143
:1059B800FFE717F8510C012800F0AE81C6E10998FD
:1059C800079BDDF820C0C0B2D3E84F1F014503D1C3
:1059D800C3E842CF002AF7D1C0B2081AB0FA80F063
:1059E800400907F84E1C07F84D0C33E00998079B4F
:1059F800DDF820C0C0B2D3E84F1F014503D1C3E88A
:105A080042CF002AF7D1C0B2081AB0FA80F0400994
:105A1800BFF35F8F07F84E1C07F84D0C1AE0099882
:105A2800079BDDF820C0BFF35F8FC0B2D3E84F1FDC
:105A3800014503D1C3E842CF002AF7D1C0B2081A02
:105A4800B0FA80F04009BFF35F8F07F84E1C07F8E3
:105A58004D0CFFE717F84E0C0146019107F80A0CA8
:105A680017F84D0C00F0010007F8090C002840F069
:105A780046813DE10998079BDDF820C0BFF35F8FA1
:105A8800C0B2D3E84F1F014503D1C3E842CF002A73
:105A9800F7D1C0B2081AB0FA80F0400907F84E1CD6
:105AA80007F84D0CD6E70998079BDDF820C0BFF32F
:105AB8005F8FC0B2D3E84F1F014503D1C3E842CF7F
:105AC800002AF7D1C0B2081AB0FA80F04009BFF333
:105AD8005F8F07F84E1C07F84D0CBBE70998079B2A
:105AE800DDF820C0BFF35F8FC0B2D3E84F1F014578
:105AF80003D1C3E842CF002AF7D1C0B2081AB0FADE
:105B080080F04009BFF35F8F07F84E1C07F84D0C73
:105B1800A0E70998079BDDF820C0C0B2D3E84F1F63
:105B2800014503D1C3E842CF002AF7D1C0B2081A11
:105B3800B0FA80F04009BFF35F8F07F84E1C07F8F2
:105B48004D0C87E70998079BDDF820C0C0B2D3E861
:105B58004F1F014503D1C3E842CF002AF7D1C0B295
:105B6800081AB0FA80F04009BFF35F8F07F84E1C9F
:105B780007F84D0C6EE70998079BDDF820C0BFF3C6
:105B88005F8FC0B2D3E84F1F014503D1C3E842CFAE
:105B9800002AF7D1C0B2081AB0FA80F04009BFF362
:105BA8005F8F07F84E1C07F84D0C53E70998079BC1
:105BB800DDF820C0BFF35F8FC0B2D3E84F1F0145A7
:105BC80003D1C3E842CF002AF7D1C0B2081AB0FA0D
:105BD80080F04009BFF35F8F07F84E1C07F84D0CA3
:105BE80038E70998079BDDF820C0BFF35F8FC0B284
:105BF800D3E84F1F014503D1C3E842CF002AF7D1AC
:105C0800C0B2081AB0FA80F04009BFF35F8F07F8F6
:105C18004E1C07F84D0C1DE70998079BDDF820C0BE
:105C2800BFF35F8FC0B2D3E84F1F014503D1C3E86C
:105C380042CF002AF7D1C0B2081AB0FA80F0400962
:105C4800BFF35F8F07F84E1C07F84D0C02E7099861
:105C5800079BDDF820C0BFF35F8FC0B2D3E84F1FAA
:105C6800014503D1C3E842CF002AF7D1C0B2081AD0
:105C7800B0FA80F04009BFF35F8F07F84E1C07F8B1
:105C88004D0CE7E60998079BDDF820C0BFF35F8F4E
:105C9800C0B2D3E84F1F014503D1C3E842CF002A61
:105CA800F7D1C0B2081AB0FA80F04009BFF35F8F8D
:105CB80007F84E1C07F84D0CCCE60998079BDDF851
:105CC80020C0BFF35F8FC0B2D3E84F1F014503D197
:105CD800C3E842CF002AF7D1C0B2081AB0FA80F060
:105CE8004009BFF35F8F07F84E1C07F84D0CB1E66B
:105CF80001988DF8310001208DF8300006E00198F8
:105D08008DF8310000208DF83000FFE79DF8300055
:105D18009DF831101EB0D0BD40F64440C2F22000BC
:105D280013900120149040F66C00C2F22000016824
:105D3800406817911890042015900020169040F69E
:105D48009441C2F2200113A813F0A7F840F68C4042
:105D5800C2F220000D9001200E9040F66C00C2F2B5
:105D68002000016840681191129004200F900020D3
:105D7800109040F6A441C2F220010DA813F08DF84E
:105D880080B56F4688B00B460146069102911868A7
:105D98005A689B6805930492039011F8340F019197
:105DA800C00738B1FFE70198411C079102A800F02D
:105DB80007F803E002A8FFF757FAFFE708B080BD2D
:105DC80080B56F468AB00190089100680AF0DEFD40
:105DD800099040F61051C2F220010DF00CFB019A17
:105DE8000390049150689168D268079206910590D3
:105DF80003A802900DF031FD014605A800F07FF8D8
:105E080002980AF0F0FE0AB080BDD0B502AF8CB09F
:105E18000793069205910490B868039009920A9333
:105E280007F8090C11F06CFDDDF80CC00498059911
:105E3800069A079B4FF0010E07F815EC17F815ECBA
:105E48000EF00104EE46CEF80440CEF800C000F093
:105E580002F80CB0D0BDF0B503AF4DF804BDBCB02E
:105E68000590F8680690D7F808C0CDF804C03992B4
:105E78003A9307F812CC07F8110C07A80290FCF720
:105E8800F3FA019902980BF050FF029A2DA90846DF
:105E9800B2E87850A0E8785092E8785080E87850D6
:105EA80020A8039000F0C0FD039913A8049001F006
:105EB800D8F9049B059906980A46B3E83050A2E839
:105EC8003050B3E83050A2E8305093E8705082E880
:105ED800705081F834003CB05DF804BBF0BD80B56B
:105EE8006F4688B0019105900692079301A9029127
:105EF8000392049302A9FFF743FF08B080BD80B561
:105F08006F4682B0009103460098019019685A685C
:105F18009B680968FCF7FCFA02B080BD80B56F4643
:105F280082B007F8010CC0B211F0D1FC02B080BDFC
:105F3800B0B502AF96B0029003A8019000F093FDAF
:105F480000200090FFF76FFC0099159015981290AB
:105F580013A8042200F05DFD019A029901F10800DE
:105F6800B2E83850A0E83850B2E83850A0E83850C5
:105F780092E8385080E83850129848641398149A78
:105F88004A60086016B0B0BDD0B502AF8CB0964676
:105F980004900A9127F80AEC002407F8134C022011
:105FA80007F8110C17F8130C17F8123C17F8112CF6
:105FB800EC46CCF80840CCF804E0CCF8002000F01F
:105FC800010206A8059000F093F80498059940F698
:105FD8008C52C2F220026B461A6040F62052C2F27E
:105FE80020020F23FCF76CFC0CB0D0BDD0B502AF7B
:105FF8008CB0964604900A9127F80AEC002407F81A
:10600800134C022007F8110C17F8130C17F8123C60
:1060180017F8112CEC46CCF80840CCF804E0CCF882
:10602800002000F0010206A8059000F011F804987D
:10603800059940F68C52C2F220026B461A6040F66F
:106048002052C2F220020F23FCF710FC0CB0D0BD86
:10605800D0B502AF92B0049303928E46059038698A
:10606800F968D7F808C0CDF820E007F829CCADF8D2
:10607800281007F8250C07F80A2C07F8093C089897
:10608800083040F69C51C2F2200100F040FC0B9011
:106098000C910BA8079000F092FD039A049B17F847
:1060A800291CBDF828E017F8254CEC46CCF8084028
:1060B800CCF804E0CCF8001080210DF06EFF024609
:1060C800059806920A46069908AB0D93A7F129038D
:1060D8000E930AAB0F93A7F12503109301F001016A
:1060E8000DABFCF74CFB079800F0A2FE12B0D0BD38
:1060F800D0B502AF92B0049303928E4605903869EA
:10610800F968D7F808C0CDF820E007F829CCADF831
:10611800281007F8250C07F80A2C07F8093C0898F6
:10612800083040F69C51C2F2200100F0F0FB0B90C1
:106138000C910BA8079000F042FD039A049B17F8F6
:10614800291CBDF828E017F8254CEC46CCF8084087
:10615800CCF804E0CCF8001000210DF01EFF024638
:10616800059806920A46069908AB0D93A7F12903EC
:106178000E930AAB0F93A7F12503109301F00101C9
:106188000DABFCF734FB079800F052FE12B0D0BDFF
:10619800D0B502AF84B08E4607F8092CDEF800109F
:1061A800DEF80430DEF808C0DEF80CE00968443197
:1061B8001B78BCF800C09EF80040EE46CEF80440BC
:1061C800CEF800C001F071F804B0D0BDD0B502AF70
:1061D80084B08E4607F8092CDEF80010DEF804308B
:1061E800DEF808C0DEF80CE0096844311B78BCF81A
:1061F80000C09EF80040EE46CEF80440CEF800C03D
:1062080001F06EF804B0D0BD80B56F468CB0039035
:106218000A9040F6AC51C2F2200100F08DFBFCF769
:106228003AFA03980830029040F6BC51C2F22001B5
:1062380000F06DFB0590069105A8019000F0BFFCE9
:106248000DF0C7FF019800F0F3FD029840F6CC511D
:10625800C2F2200100F05BFB0790089107A800F04C
:10626800AEFC0146039804910B914430042207F8D0
:10627800092C17F8092CFFF704FB07980899FCF775
:1062880005FA04980CB080BD80B56F4688B00690BA
:1062980040F6DC51C2F2200100F04EFB049005915B
:1062A80004A8009000F081FC0146009809780A468D
:1062B800019207F8011C00F07DFC0146029100786C
:1062C800411CC8B20A460392884209D1FFE70398E5
:1062D8000299087004A800F0B4FD019808B080BDC8
:1062E80040F6EC50C2F2200013F0DEFED0B502AF4B
:1062F8008CB01C46964604900A91ADF82CE007F83D
:10630800094C002007F8130C032007F8110C17F8A4
:10631800130C17F8123C17F8112CEC46CCF808406F
:10632800CCF804E0CCF8002000F0010206A80590A3
:10633800FFF78EFE0498059940F6FC52C2F220023F
:106348006B461A6040F62052C2F220020F23FCF777
:106358008DFA0CB0D0BD80B56F4684B00290039121
:1063680011F027F807F8090C17F8090C022806D0CD
:10637800FFE717F8090CFF2801D0FFE704E0002029
:1063880007F80A0C04E0FEDE012007F80A0CFFE714
:1063980017F80A0C00F0010004B080BD80B56F4604
:1063A80082B0019038B9FFE740F60C60C2F22000D5
:1063B8005D2112F0A4FD02B080BD80B56F46BAB071
:1063C800029104903691049890F860000146039178
:1063D80030B1FFE7039801281BD0FFE71DE0FEDE80
:1063E8000298359004980268389248F28051C2F2B7
:1063F80000011DA80090FEF741FE009906A8019033
:10640800FEF7E5FB0199049804305C2214F0CDF8FE
:1064180006E000200028FCD10FE002983590FFE745
:106428000498043039903599FEF735FE07F8150CB5
:1064380017F8150CC00730B116E040F6CC60C2F270
:10644800200013F0A3FE0498043000F09AFC00200A
:1064580007F8D10C0499012081F8600017F8D10CD5
:1064680000F001003AB080BD012007F8D10C049972
:10647800032081F8600017F8D10C00F001003AB051
:1064880080BD80B56F4688B00146059101F5FA7068
:1064980002460392884211D3FFE7039844F6D3518A
:1064A800C1F26201A0FB01014FF0FF3000EB911037
:1064B80002900020B0EB911F0CD005E040F6DC60A4
:1064C800C2F2200013F0F0FD02980790B0F1807F2F
:1064D80011D305E040F6DC60C2F2200013F0F7FDAE
:1064E80040F6EC60C2F2200040F61472C2F22002BC
:1064F800272112F0F1FC029858B9FFE740F6247002
:10650800C2F2200040F64072C2F220021C2112F0B2
:10651800E3FCA7F10E00019000F07FFD0198002137
:1065280007F80D1C17F80D1C01F0010100F0A9FD7A
:106538000299019800F044FD019800F088FD019847
:1065480000F051FD48F28050C2F20000FEF788FBCF
:1065580008B080BD80B56F46642214F026F880BD6F
:1065680083B00090029018B9FFE70020019002E084
:1065780000980190FFE7019803B0704780B56F4617
:1065880084B0009101900020FFF753F9DDF800C0B6
:106598000199039003980290DCF80000DCF80420CD
:1065A800DCF80830DCF80CC0C1F80CC08B604A601D
:1065B80008600298086104B080BD80B56F4682B05B
:1065C800009101906946FEF7ECFD02B080BD80B5F0
:1065D8006F4694B007900891042007F82A0C17F822
:1065E8002A0CFEF7A9F90798002107F8291C17F8C3
:1065F800291CFFF72FF9014606911190FFF7B0FF0C
:106608000A900A9848B1FFE706980A9905911291ED
:106618000899096888420ED001E014B080BD059839
:106628000C901030002107F8151C17F8151CFFF7FF
:1066380011F90D9015E00598079904911030002183
:10664800039107F8221C17F8221CFFF703F9039A95
:106658000146049807F8212C17F8212CFFF705F9B3
:10666800DBE70D98FFF77CFF0F900F980028D4D038
:10667800FFE70F98029013900D98089909688842CF
:106688000CD0FFE702980C901030002107F80E1C80
:1066980017F80E1CFFF7DEF80D90E2E702980C9948
:1066A800103101911030002100918DF840109DF8B3
:1066B8004010FFF7CFF8009A0146019807F80F2C11
:1066C80017F80F2CFFF7D1F8A7E780B56F4684B00D
:1066D8000191014601980290039102A8FEF779FD05
:1066E80004B080BD80B56F469CB009900A910998A6
:1066F80000680690014607911B9016901790042099
:1067080007F83A0C17F83A0CFEF716F90A98002120
:1067180007F8391C17F8391CFFF79CF8014608914F
:106728001890FFF71DFF0E900E9840B1FFE70798ED
:106738000E9905911991FEF71CFAD8B90EE0079940
:106748000A98002207F8332C17F8332CFFF78DF836
:10675800069801218DF82C100C906CE0059810908B
:106768001030002107F8251C17F8251CFFF772F8D0
:10677800119019E00798089910300022049207F840
:10678800322C17F8322CFFF770F8049A07990A98F8
:1067980007F8312C17F8312CFFF767F80698012114
:1067A8008DF82C100C9046E01198FFF7D9FE139045
:1067B800139840B1FFE70798139903911A91FEF7D0
:1067C800D8F9E8B910E00799109810300022029221
:1067D80007F81A2C17F81A2CFFF747F802990698A9
:1067E8008DF82C100C9026E00398109010300021A2
:1067F80007F81B1C17F81B1CFFF72CF81190D3E7A0
:106808000798103011990022019207F81D2C17F8EB
:106818001D2CFFF72AF80799019A109810308DF867
:1068280054209DF85420FFF720F8019906988DF818
:106838002C100C90FFE70C999DF82C001CB080BD23
:1068480080B56F4682B000910192FEF7DEFC02B07F
:1068580080BD80B56F4692B00490069107920020E3
:10686800059007F80A0C012007F80A0C042007F81D
:10687800260C17F8260CFEF75FF80599069807F816
:10688800251C17F8251CFEF7E5FF1090FFF768FE9A
:106898000990099858B1FFE70999039111910020CF
:1068A80007F80A0C0798FEF7C2FB40B9FFE70499FE
:1068B8000020086017F80A0CC00738BB24E00398CA
:1068C8000699029110300021019107F81E1C17F853
:1068D8001E1CFEF7BFFF019A0146029807F81D2CFF
:1068E80017F81D2CFEF7C1FF03990BA8FEF77AF9DC
:1068F80004990B980C9A0D9BDDF838C0C1F80CC0B0
:106908008B604A600860FFE712B080BDFCE780B585
:106918006F4688B00191049000F023F8029003912B
:10692800029830B1FFE7029803990690079108B0E2
:1069380080BD019812F0F7F980B56F4688B00191D3
:10694800049000F03AF802900391029830B1FFE702
:10695800029803990690079108B080BD019812F03B
:10696800E2F980B56F468EB0029006904FF0FF3185
:10697800079108910990006870B9FFE702984FF0F5
:10698800FF3101600590059900910A9104300B9040
:10699800014601910C9002E00020039009E0019863
:1069A800FFF7FCFCFFE7009801990D910391049013
:1069B800FFE7039804990EB080BD80B56F468EB08E
:1069C800029006904FF0FF310791089109900068F6
:1069D80070B9FFE702984FF0FF3101600590059903
:1069E80000910A9104300B90014601910C9002E04D
:1069F8000020039009E00198FFF7D0FCFFE700981A
:106A080001990D9103910490FFE7039804990EB042
:106A180080BD81B08DF802108DF80320002303603B
:106A28000171427101B07047F0B503AF4DF8048DA4
:106A38008CB00B4669460A46B3E87051A2E870511B
:106A480093E8705182E87051002240F8042BB1E8B5
:106A58003C50A0E83C5091E83C5080E83C500CB0D9
:106A68005DF8048BF0BDF0B503AF4DF804BD8EB0F2
:106A78000B4669460A46B3E83050A2E83050B3E8FE
:106A88007050A2E8705093E8705082E8705000226D
:106A980040F8042BB1E80C50A0E80C50B1E81C50A9
:106AA800A0E81C5091E81C5080E81C500EB05DF81E
:106AB80004BBF0BD80B56F4696B0019202910346C3
:106AC80003930593069107930622089209910A9168
:106AD8000B930C9200200F90109111931292139126
:106AE80014900E9101200D900E980490159007298E
:106AF80005D3FFE7019A0298062112F0CFFF049907
:106B0800039816B080BD80B56F4696B00192029189
:106B18000346039305930691079306220892099169
:106B28000A910B930C9200200F90109111931292DE
:106B3800139114900E9101200D900E9804901590C9
:106B4800072905D3FFE7019A0298062112F0A6FF4C
:106B58000499039816B080BD80B56F4696B001922F
:106B68000291034603930593069107930622089220
:106B780009910A910B930C9200200F901091119398
:106B88001292139114900E9101200D900E9804907A
:106B98001590072905D3FFE7019A0298062112F0FC
:106BA8007DFF0499039816B080BD81B000900068FD
:106BB80001B0704781B00090006801B0704781B0A3
:106BC8000090006801B0704780B56F4686B00091AC
:106BD800014600980491059000F0AFF9014600982D
:106BE800019100F0AAF9014600986031029100F085
:106BF800A4F901460098C031039100F09EF9DDF830
:106C080004C0029B039A049900F59070C1F800C073
:106C18004B608A60C86006B080BD80B56F4686B09C
:106C28000091014600980491059000F098F90146FA
:106C38000098019100F093F90146009860310291A3
:106C480000F08DF901460098C031039100F087F9F2
:106C5800DDF804C0029B039A049900F59070C1F80E
:106C680000C04B608A60C86006B080BD80B56F46C2
:106C780086B00091014600980491059000F081F9D2
:106C880001460098019100F07CF9014600986031B6
:106C9800029100F076F901460098C031039100F0A6
:106CA80070F9DDF804C0029B039A049900F590700E
:106CB800C1F800C04B608A60C86006B080BD80B56E
:106CC8006F4686B00091014600980491059000F047
:106CD8005EF901460098019100F059F901460098C3
:106CE8006031029100F053F901460098C0310391D8
:106CF80000F04DF9DDF804C0029B039A049900F5F1
:106D08009070C1F800C04B608A60C86006B080BD52
:106D18008CB0009002900221039104910591069095
:106D28000791089009910A90FFE700980B900230AC
:106D38000190FFE7009801990CB0704780B56F4645
:106D480082B000900190FFE70098FFF727FBFFE76C
:106D5800009802B080BD80B56F464FF4E07213F022
:106D680024FC80BD80B56F4682B0B81EFCF728F8B9
:106D780002B080BD80B56F4682B000F0FAFB02B069
:106D880080BD80B56F4684B00090029090F858009E
:106D98000146019130B1FFE70198032804D0FFE7CD
:106DA80004B080BD04B080BD0098103000F00AF82F
:106DB80004B080BD80B56F4682B0019000F04AF8FB
:106DC80002B080BD80B56F4684B00090029090F804
:106DD80045000146019130B1FFE70198032804D02E
:106DE800FFE704B080BD04B080BD0098103000F00B
:106DF80017F80098002180F84410203000F002F8BD
:106E080004B080BD80B56F4682B0009001900068E4
:106E180010B9FFE702B080BD0098FFF7CBFFF9E794
:106E280080B56F4682B0019000F035F802B080BDA1
:106E380080B56F4682B00190043010F03EF802B081
:106E480080BD80B56F4682B00190043010F035F8EF
:106E580002B080BD80B56F4682B0019010F025F871
:106E680002B080BD80B56F4684B00090029090F863
:106E780060000146019130B1FFE70198032804D072
:106E8800FFE704B080BD04B080BD00980430FFF770
:106E980078FF04B080BD80B56F4682B00090019045
:106EA800FDF788FEFDF7F1FF02B080BD84B00090C9
:106EB8000191007800F001000290097801F00101C9
:106EC8000391401AB0FA80F0400904B0704780B5C9
:106ED8006F4682B010F0F8FC019000F00100012824
:106EE80004D0FFE7002007F8050C03E0012007F8AD
:106EF800050CFFE717F8050C00F0010002B080BD93
:106F080080B56F4682B007F8010C40F65071C2F2A6
:106F18002001781EFFF7CAFF02B080BD80B56F461A
:106F280040F65170C2F22000522111F0E8FF82B001
:106F380000900190006802B0704782B00090019004
:106F4800006802B0704782B000900190006802B0FB
:106F5800704782B000900190006802B0704782B01C
:106F680000900190006802B0704782B000900190D4
:106F7800006802B0704782B000900190006802B0CB
:106F8800704782B000900190006802B0704782B0EC
:106F980000900190006802B0704782B000900190A4
:106FA800006802B0704782B000900190006802B09B
:106FB800704748F28C51C2F20001012008707047F6
:106FC80080B56F4688B00090019107904EF214008A
:106FD800CEF200000290039104900591069010F003
:106FE800EFFE08B080BD80B56F468AB00290099068
:106FF8004EF21000CEF2000001900390049005902C
:1070080010F06FFE10F007FC0146019806900791FA
:10701800089010F0D5FE0AB080BD80B56F468AB0E2
:10702800029009904EF21000CEF2000001900390F9
:107038000490059010F055FE10F0E7FB014601980A
:1070480006900791089010F0BBFE0AB080BD80B58D
:107058006F468AB0029009904EF21000CEF20000FE
:10706800019003900490059010F03BFEFBF71DFB88
:107078000146019806900791089010F0A1FE0AB009
:1070880080BD80B56F4694B0039007F83D1C05900D
:1070980017F83D0CC007B0B9FFE7039813904EF2FC
:1070A8001000CEF20000029006900A900B9010F0AB
:1070B80018FEFBF700FB014602980F901091119003
:1070C80010F07EFE15E0039812904EF21000CEF2FA
:1070D8000000019007900890099010F002FEFBF75D
:1070E800F0FA014601980C900D910E9010F068FE90
:1070F800FFE714B080BD84B000900191007800F0E3
:1071080001000290097801F001010391401AB0FAD8
:1071180080F0400904B0704780B56F4682B0019096
:107128000068804702B080BD80B56F4610F0C9FB8B
:1071380080BD80B56F4686B001910290049101F53B
:10714800A060042107F8091C17F8092C0121FDF794
:10715800F9FA70B9FFE7019805904FF4A0610AF0B9
:107168008EFC0246084602994A6088600120086041
:1071780003E0029900200860FFE706B080BD80B5F3
:107188006F4690B002910390134604930B900C91B4
:1071980007F8092C40F6D070C2F220000E904FF08C
:1071A800553000EA5100081A4FF0333101EA9001D6
:1071B80020F0CC30084400EB101020F0F0304FF0F5
:1071C80001314843000E0F900F98012808D1FFE7BE
:1071D8000398029902460192013908421AD01DE02B
:1071E80040F6D070C2F2200005900120069040F6CB
:1071F8006C00C2F220000168406809910A900420DE
:1072080007900020089041F2BC01C2F2200105A8B5
:1072180011F043FE0498C00720B900E003E001988C
:1072280040B900E006E040F6D870C2F220006F21B5
:1072380011F065FE10B080BD80B56F4682B0009039
:1072480007F8011CFCF712FD02B080BD80B56F463F
:1072580084B00190029107F8012CFCF71CFD04B0E2
:1072680080BDF0B503AF4DF804BD8DB00B4669463F
:107278000A46B3E83050A2E83050B3E83050A2E8EC
:10728800305093E8705082E87050B1E80C50A0E894
:107298000C50B1E80C50A0E80C5091E81C5080E864
:1072A8001C500DB05DF804BBF0BDD0B502AF83B083
:1072B80094468E460146F868BA68CDF800E007F8AB
:1072C8000ECC07F80D3CADF8082007F8090CC1F8FA
:1072D80000E081F806C00B728A80C87103B0D0BD87
:1072E800D0B502AF83B094468E460146F868BA68B6
:1072F800CDF800E007F80ECC07F80D3CADF80820F3
:1073080007F8090CC1F800E081F806C00B728A8002
:10731800C87103B0D0BD82B08DF8031001909DF8FC
:107328000310084302B0704781B001B0704780B5C0
:107338006F468CB000910146009813460193039163
:107348008DF8100007F81F2C07F8010C17F8010C2E
:1073580027F81E0C0A9127F8160C0146029100091D
:107368001E2812D8FFE7019902984EF20042CEF289
:1073780000021044059007F8171C079007F80D1C29
:10738800099010F065F90CB080BD029841F23012F6
:10739800C2F220024FF4F87111F0C8FD80B56F46B3
:1073A8008CB007F81F0C07F8010C17F8010C014600
:1073B800029127F81E0C400927F8120C0146039188
:1073C8000F2810D8FFE70298039A4EF20011CEF268
:1073D800000101EB8201009100F01F0001460191BC
:1073E800202808D316E0039841F24012C2F2200286
:1073F800102111F09BFD0098019901F01F02012155
:10740800914005900691089009910A9010F0D8FCD7
:107418000CB080BD41F25010C2F2200012F090FE74
:1074280080B56F4698B0019302910390B8680490B4
:1074380007F8492C139348F26811C2F2000106A814
:10744800FCF7C7FB069828B3FFE703980499DDF813
:1074580008E0019BDDF818C0CDF850C0079A1592D6
:10746800CDF858C01792CDF82CC00C93DEF8003038
:10747800DEF804C0DEF808E0CDF83CE0CDF838C00E
:107488000D93A7F149031093119212910BA9FDF7DF
:10749800D6FE0BE0029908A8FBF7ACFD0399089803
:1074A800099A0A9B8B604A600860FFE718B080BDA4
:1074B80080B56F468EB0019102900868496805F062
:1074C800BCFD07F8290CA7F12900FBF723FAD8B966
:1074D800FFE701998868CA680B690C930B920A90B8
:1074E80048698A69CB69007800F001010AA8FCF7AD
:1074F80099FE4AF64D60C0F2000006F06DF8029958
:1075080048600020086012E0019A9068D16812690A
:1075180009920891079004A807A9FBF76BFD029947
:107528000498059A069B8B604A600860FFE70EB0D6
:1075380080BD80B56F468AB002920191049007F829
:10754800012C05A8039005F0D4FD05F04DFF05F0CA
:1075580050FF0199029A039B84460498CDF820C0F5
:10756800EE460DF1200CCEF800C0FFF759FF0AB027
:1075780080BD81B001B0704780B56F4688B0019179
:1075880001460198049105900291039002AA06927F
:1075980049680792884708B080BD82B00090019181
:1075A80002B0704782B000910146009801900860CF
:1075B800486040F66C00C2F22000026840688A60A9
:1075C800C86002B0704781B00090006801B0704791
:1075D80083B00091014600980191029003B0704772
:1075E80080B56F4682B00190016840680968884795
:1075F80002B080BDF0B503AF2DE9000FADF5657D94
:107608000A460792269002F1340002F138015432FA
:1076180008F023FB0799D1F8C80009F01CF9FFF717
:10762800A9FB079901F594700190FFF780FC0146CA
:1076380001980291FFF77BFCE090E49010F051FB79
:107648000146029841F00101E190E291E39010F0C7
:10765800B7FB0799D1F8281127A8FBF721FD07994F
:10766800D1F8C000FCF7EBF92B902BA8FCF796FAA1
:107678000799D1F8C400FCF72CFA2C902CA8FCF739
:1076880072FA0799D1F85C0108F05EFE024617927B
:10769800084607991290DC92DD9008680221039150
:1076A8008DF8B410032104918DF8B5109DF8B5201C
:1076B8009DF8B410FCF711F8039A0499034607984B
:1076C8002393DE9340688DF8B6208DF8B7109DF8A7
:1076D800B7209DF8B610FBF75EFF07992490DF905E
:1076E800D1F87C01059008F085FF069008F088FF26
:1076F8000599069A03462EA8259008F083FF079956
